{"abi":[{"type":"constructor","inputs":[{"name":"usdcAddress","type":"address","internalType":"address"},{"name":"relayerAddress","type":"address","internalType":"address"},{"name":"treasuryAddress","type":"address","internalType":"address"}],"stateMutability":"nonpayable"},{"type":"function","name":"EMERGENCY_REFUND_DELAY","inputs":[],"outputs":[{"name":"","type":"uint64","internalType":"uint64"}],"stateMutability":"view"},{"type":"function","name":"TIMELOCK_DURATION","inputs":[],"outputs":[{"name":"","type":"uint64","internalType":"uint64"}],"stateMutability":"view"},{"type":"function","name":"admin","inputs":[],"outputs":[{"name":"","type":"address","internalType":"address"}],"stateMutability":"view"},{"type":"function","name":"confirmRelayer","inputs":[],"outputs":[],"stateMutability":"nonpayable"},{"type":"function","name":"confirmTreasury","inputs":[],"outputs":[],"stateMutability":"nonpayable"},{"type":"function","name":"deposit","inputs":[{"name":"escrowId","type":"bytes32","internalType":"bytes32"},{"name":"poster","type":"address","internalType":"address"},{"name":"agent","type":"address","internalType":"address"},{"name":"amount","type":"uint256","internalType":"uint256"},{"name":"bidHash","type":"bytes32","internalType":"bytes32"}],"outputs":[],"stateMutability":"nonpayable"},{"type":"function","name":"emergencyRefund","inputs":[{"name":"escrowId","type":"bytes32","internalType":"bytes32"}],"outputs":[],"stateMutability":"nonpayable"},{"type":"function","name":"flagRelayerCompromised","inputs":[],"outputs":[],"stateMutability":"nonpayable"},{"type":"function","name":"getEscrow","inputs":[{"name":"escrowId","type":"bytes32","internalType":"bytes32"}],"outputs":[{"name":"","type":"tuple","internalType":"struct IAgentEscrow.Escrow","components":[{"name":"poster","type":"address","internalType":"address"},{"name":"agent","type":"address","internalType":"address"},{"name":"amount","type":"uint256","internalType":"uint256"},{"name":"bidHash","type":"bytes32","internalType":"bytes32"},{"name":"createdAt","type":"uint64","internalType":"uint64"},{"name":"submitted","type":"bool","internalType":"bool"},{"name":"status","type":"uint8","internalType":"enum IAgentEscrow.EscrowStatus"}]}],"stateMutability":"view"},{"type":"function","name":"markSubmitted","inputs":[{"name":"escrowId","type":"bytes32","internalType":"bytes32"}],"outputs":[],"stateMutability":"nonpayable"},{"type":"function","name":"pause","inputs":[],"outputs":[],"stateMutability":"nonpayable"},{"type":"function","name":"paused","inputs":[],"outputs":[{"name":"","type":"bool","internalType":"bool"}],"stateMutability":"view"},{"type":"function","name":"proposeRelayer","inputs":[{"name":"newRelayer","type":"address","internalType":"address"}],"outputs":[],"stateMutability":"nonpayable"},{"type":"function","name":"proposeTreasury","inputs":[{"name":"newTreasury","type":"address","internalType":"address"}],"outputs":[],"stateMutability":"nonpayable"},{"type":"function","name":"proposedRelayer","inputs":[],"outputs":[{"name":"","type":"address","internalType":"address"}],"stateMutability":"view"},{"type":"function","name":"proposedTreasury","inputs":[],"outputs":[{"name":"","type":"address","internalType":"address"}],"stateMutability":"view"},{"type":"function","name":"reassignAgent","inputs":[{"name":"escrowId","type":"bytes32","internalType":"bytes32"},{"name":"newAgent","type":"address","internalType":"address"}],"outputs":[],"stateMutability":"nonpayable"},{"type":"function","name":"refund","inputs":[{"name":"escrowId","type":"bytes32","internalType":"bytes32"}],"outputs":[],"stateMutability":"nonpayable"},{"type":"function","name":"relayer","inputs":[],"outputs":[{"name":"","type":"address","internalType":"address"}],"stateMutability":"view"},{"type":"function","name":"relayerCompromised","inputs":[],"outputs":[{"name":"","type":"bool","internalType":"bool"}],"stateMutability":"view"},{"type":"function","name":"relayerEffectiveAt","inputs":[],"outputs":[{"name":"","type":"uint64","internalType":"uint64"}],"stateMutability":"view"},{"type":"function","name":"release","inputs":[{"name":"escrowId","type":"bytes32","internalType":"bytes32"}],"outputs":[],"stateMutability":"nonpayable"},{"type":"function","name":"split","inputs":[{"name":"escrowId","type":"bytes32","internalType":"bytes32"},{"name":"agentAmount","type":"uint256","internalType":"uint256"}],"outputs":[],"stateMutability":"nonpayable"},{"type":"function","name":"treasury","inputs":[],"outputs":[{"name":"","type":"address","internalType":"address"}],"stateMutability":"view"},{"type":"function","name":"treasuryEffectiveAt","inputs":[],"outputs":[{"name":"","type":"uint64","internalType":"uint64"}],"stateMutability":"view"},{"type":"function","name":"unflagRelayer","inputs":[],"outputs":[],"stateMutability":"nonpayable"},{"type":"function","name":"unpause","inputs":[],"outputs":[],"stateMutability":"nonpayable"},{"type":"function","name":"usdc","inputs":[],"outputs":[{"name":"","type":"address","internalType":"address"}],"stateMutability":"view"},{"type":"event","name":"AgentReassigned","inputs":[{"name":"escrowId","type":"bytes32","indexed":true,"internalType":"bytes32"},{"name":"oldAgent","type":"address","indexed":true,"internalType":"address"},{"name":"newAgent","type":"address","indexed":true,"internalType":"address"}],"anonymous":false},{"type":"event","name":"Deposited","inputs":[{"name":"escrowId","type":"bytes32","indexed":true,"internalType":"bytes32"},{"name":"poster","type":"address","indexed":true,"internalType":"address"},{"name":"agent","type":"address","indexed":true,"internalType":"address"},{"name":"amount","type":"uint256","indexed":false,"internalType":"uint256"},{"name":"bidHash","type":"bytes32","indexed":false,"internalType":"bytes32"}],"anonymous":false},{"type":"event","name":"EmergencyRefunded","inputs":[{"name":"escrowId","type":"bytes32","indexed":true,"internalType":"bytes32"},{"name":"poster","type":"address","indexed":true,"internalType":"address"},{"name":"amount","type":"uint256","indexed":false,"internalType":"uint256"}],"anonymous":false},{"type":"event","name":"Paused","inputs":[{"name":"admin","type":"address","indexed":true,"internalType":"address"}],"anonymous":false},{"type":"event","name":"Refunded","inputs":[{"name":"escrowId","type":"bytes32","indexed":true,"internalType":"bytes32"},{"name":"poster","type":"address","indexed":true,"internalType":"address"},{"name":"amount","type":"uint256","indexed":false,"internalType":"uint256"}],"anonymous":false},{"type":"event","name":"RelayerConfirmed","inputs":[{"name":"newRelayer","type":"address","indexed":true,"internalType":"address"}],"anonymous":false},{"type":"event","name":"RelayerFlagged","inputs":[{"name":"relayer","type":"address","indexed":true,"internalType":"address"}],"anonymous":false},{"type":"event","name":"RelayerProposed","inputs":[{"name":"proposedRelayer","type":"address","indexed":true,"internalType":"address"},{"name":"effectiveAt","type":"uint64","indexed":false,"internalType":"uint64"}],"anonymous":false},{"type":"event","name":"RelayerUnflagged","inputs":[],"anonymous":false},{"type":"event","name":"Released","inputs":[{"name":"escrowId","type":"bytes32","indexed":true,"internalType":"bytes32"},{"name":"agent","type":"address","indexed":true,"internalType":"address"},{"name":"amount","type":"uint256","indexed":false,"internalType":"uint256"}],"anonymous":false},{"type":"event","name":"Split","inputs":[{"name":"escrowId","type":"bytes32","indexed":true,"internalType":"bytes32"},{"name":"poster","type":"address","indexed":true,"internalType":"address"},{"name":"agent","type":"address","indexed":true,"internalType":"address"},{"name":"posterAmount","type":"uint256","indexed":false,"internalType":"uint256"},{"name":"agentAmount","type":"uint256","indexed":false,"internalType":"uint256"}],"anonymous":false},{"type":"event","name":"TreasuryConfirmed","inputs":[{"name":"newTreasury","type":"address","indexed":true,"internalType":"address"}],"anonymous":false},{"type":"event","name":"TreasuryProposed","inputs":[{"name":"proposedTreasury","type":"address","indexed":true,"internalType":"address"},{"name":"effectiveAt","type":"uint64","indexed":false,"internalType":"uint64"}],"anonymous":false},{"type":"event","name":"Unpaused","inputs":[{"name":"admin","type":"address","indexed":true,"internalType":"address"}],"anonymous":false},{"type":"event","name":"WorkSubmitted","inputs":[{"name":"escrowId","type":"bytes32","indexed":true,"internalType":"bytes32"}],"anonymous":false},{"type":"error","name":"ContractPaused","inputs":[]},{"type":"error","name":"EmergencyRefundTooEarly","inputs":[]},{"type":"error","name":"EscrowAlreadyExists","inputs":[]},{"type":"error","name":"EscrowNotFound","inputs":[]},{"type":"error","name":"InvalidAddress","inputs":[]},{"type":"error","name":"InvalidAmount","inputs":[]},{"type":"error","name":"InvalidEscrowStatus","inputs":[]},{"type":"error","name":"ReentrancyGuardReentrantCall","inputs":[]},{"type":"error","name":"RelayerCompromised","inputs":[]},{"type":"error","name":"SafeERC20FailedOperation","inputs":[{"name":"token","type":"address","internalType":"address"}]},{"type":"error","name":"TimelockNotExpired","inputs":[]},{"type":"error","name":"Unauthorized","inputs":[]},{"type":"error","name":"WorkAlreadySubmitted","inputs":[]}],"bytecode":{"object":"0x60a060405234801562000010575f80fd5b5060405162001b7f38038062001b7f833981016040819052620000339162000131565b60017f9b779b17422d0df92223018b32b4d1fa46e071723d6817e2486d003becc55f00556001600160a01b0383166200007f5760405163e6c4247b60e01b815260040160405180910390fd5b6001600160a01b038216620000a75760405163e6c4247b60e01b815260040160405180910390fd5b6001600160a01b038116620000cf5760405163e6c4247b60e01b815260040160405180910390fd5b6001600160a01b039283166080525f80546001600160a01b0319908116331790915560018054938516938216939093179092556002805491909316911617905562000178565b80516001600160a01b03811681146200012c575f80fd5b919050565b5f805f6060848603121562000144575f80fd5b6200014f8462000115565b92506200015f6020850162000115565b91506200016f6040850162000115565b90509250925092565b6080516119c4620001bb5f395f8181610228015281816107b50152818161093101528181610cc10152818161100b0152818161104d01526111ba01526119c45ff3fe608060405234801561000f575f80fd5b50600436106101bb575f3560e01c80638406c079116100f3578063d92e0af211610093578063f023b8111161006e578063f023b81114610396578063f110ed67146103b6578063f20ee2f8146103c9578063f851a440146103e3575f80fd5b8063d92e0af214610368578063da4d18b61461037b578063edf1d2b31461038e575f80fd5b80639e9bb3cf116100ce5780639e9bb3cf1461031b578063a78ff4941461032e578063add7859714610341578063c1cc0b5514610354575f80fd5b80638406c079146102f85780638456cb591461030b5780638f91d0e914610313575f80fd5b80635c975abb1161015e578063658658811161013957806365865881146102b757806367d42a8b146102bf5780636d1f016e146102d25780637249fbb6146102e5575f80fd5b80635c975abb146102785780635f295dd91461029c57806361d027b3146102a4575f80fd5b80633e413bee116101995780633e413bee146102265780633f4ba83a1461024c5780634623c81e146102545780634a1fbd121461025e575f80fd5b80630698793d146101bf5780630acbdee3146101ef5780632639e4e414610211575b5f80fd5b6004546101d2906001600160a01b031681565b6040516001600160a01b0390911681526020015b60405180910390f35b6101f962ed4e0081565b6040516001600160401b0390911681526020016101e6565b61022461021f3660046117a6565b6103f5565b005b7f00000000000000000000000000000000000000000000000000000000000000006101d2565b6102246104df565b6101f96201518081565b6005546101f990600160a01b90046001600160401b031681565b60025461028c90600160a01b900460ff1681565b60405190151581526020016101e6565b610224610541565b6002546101d2906001600160a01b031681565b6102246105b6565b6102246102cd3660046117c6565b61066d565b6005546101d2906001600160a01b031681565b6102246102f33660046117c6565b610845565b6001546101d2906001600160a01b031681565b6102246109a0565b610224610a08565b6102246103293660046117dd565b610a68565b61022461033c366004611827565b610d5d565b61022461034f366004611851565b610ee0565b60025461028c90600160a81b900460ff1681565b6102246103763660046117c6565b6110e0565b6102246103893660046117c6565b611229565b610224611373565b6103a96103a43660046117c6565b61142a565b6040516101e69190611885565b6102246103c43660046117a6565b611512565b6004546101f990600160a01b90046001600160401b031681565b5f546101d2906001600160a01b031681565b5f546001600160a01b0316331461041e576040516282b42960e81b815260040160405180910390fd5b6001600160a01b0381166104455760405163e6c4247b60e01b815260040160405180910390fd5b600480546001600160a01b0319166001600160a01b03831617905561046d620151804261191b565b6004805467ffffffffffffffff60a01b1916600160a01b6001600160401b0393841681029190911791829055604051910490911681526001600160a01b038216907f82fe0bfd2f5a32f53e453dd3e4603539d597b1019a39a0dddb2e9903566fda95906020015b60405180910390a250565b5f546001600160a01b03163314610508576040516282b42960e81b815260040160405180910390fd5b6002805460ff60a01b1916905560405133907f5db9ee0a495bf2e6ff9c91a7834c1ba4fdd244a5e8aa4e537bd38aeae4b073aa905f90a2565b5f546001600160a01b0316331461056a576040516282b42960e81b815260040160405180910390fd5b6002805460ff60a81b1916600160a81b1790556001546040516001600160a01b03909116907f9d00f3673ab1f638de8cccb677d114596d94caf83d1a8756c9ac28cbd19358bb905f90a2565b5f546001600160a01b031633146105df576040516282b42960e81b815260040160405180910390fd5b600454600160a01b90046001600160401b03164210156106125760405163621e25c360e01b815260040160405180910390fd5b60048054600180546001600160a01b0319166001600160a01b0383169081179091556001600160e01b03199091169091556040517f51a730c2220936e1a65f5a7acd06e575889f3afc9d273650b675ac05c5ddfdad905f90a2565b6001546001600160a01b03163314610697576040516282b42960e81b815260040160405180910390fd5b600254600160a01b900460ff16156106c25760405163ab35696f60e01b815260040160405180910390fd5b600254600160a81b900460ff16156106ed5760405163dc34885d60e01b815260040160405180910390fd5b6106f56115f5565b5f8181526003602052604090206001600482810154600160481b900460ff169081111561072457610724611871565b14610782575f5b600482810154600160481b900460ff169081111561074b5761074b611871565b036107695760405163f1d80ab160e01b815260040160405180910390fd5b60405163268afcc560e21b815260040160405180910390fd5b60048101805460ff60481b19166902000000000000000000179055600181015460028201546107df916001600160a01b037f0000000000000000000000000000000000000000000000000000000000000000811692911690611610565b600181015460028201546040519081526001600160a01b039091169083907fc8fa66dff4b9073528c3f1bf21a8dc9a18fdf09847e88e96188bc953aef519f0906020015b60405180910390a35061084260015f8051602061196f83398151915255565b50565b6001546001600160a01b0316331461086f576040516282b42960e81b815260040160405180910390fd5b600254600160a01b900460ff161561089a5760405163ab35696f60e01b815260040160405180910390fd5b600254600160a81b900460ff16156108c55760405163dc34885d60e01b815260040160405180910390fd5b6108cd6115f5565b5f8181526003602052604090206001600482810154600160481b900460ff16908111156108fc576108fc611871565b14610907575f61072b565b60048101805460ff60481b1916600360481b1790558054600282015461095b916001600160a01b037f0000000000000000000000000000000000000000000000000000000000000000811692911690611610565b805460028201546040519081526001600160a01b039091169083907ff552ca82e113ac3c539c3d617f29fcd19c172a0c75dad017555c9e109f7fe18390602001610823565b5f546001600160a01b031633146109c9576040516282b42960e81b815260040160405180910390fd5b6002805460ff60a01b1916600160a01b17905560405133907f62e78cea01bee320cd4e420270b5ea74000d11b0c9f74754ebdbfc544b05a258905f90a2565b5f546001600160a01b03163314610a31576040516282b42960e81b815260040160405180910390fd5b6002805460ff60a81b191690556040517fc93876b5f6db36fb455ad988a5053875eaaa98a65dc8adf495203899e6cbf8d1905f90a1565b6001546001600160a01b03163314610a92576040516282b42960e81b815260040160405180910390fd5b600254600160a01b900460ff1615610abd5760405163ab35696f60e01b815260040160405180910390fd5b600254600160a81b900460ff1615610ae85760405163dc34885d60e01b815260040160405180910390fd5b610af06115f5565b6001600160a01b038416610b175760405163e6c4247b60e01b815260040160405180910390fd5b6001600160a01b038316610b3e5760405163e6c4247b60e01b815260040160405180910390fd5b815f03610b5e5760405163162908e360e11b815260040160405180910390fd5b5f80868152600360205260409020600490810154600160481b900460ff1690811115610b8c57610b8c611871565b14610baa5760405163ed77877960e01b815260040160405180910390fd5b6040805160e0810182526001600160a01b03808716825285166020820152908101839052606081018290526001600160401b03421660808201525f60a082015260c08101600190525f86815260036020818152604092839020845181546001600160a01b03199081166001600160a01b039283161783559286015160018301805490941691161790915591830151600283015560608301519082015560808201516004808301805460a08601516001600160401b0390941668ffffffffffffffffff1990911617600160401b931515939093029290921780835560c0850151929160ff60481b1990911690600160481b908490811115610cac57610cac611871565b0217905550610ce99150506001600160a01b037f00000000000000000000000000000000000000000000000000000000000000001685308561164f565b826001600160a01b0316846001600160a01b0316867f92e212113edeccc76b4cc394cdda02e804dfcf81c1b7649c794592dc9fe76d948585604051610d38929190918252602082015260400190565b60405180910390a4610d5660015f8051602061196f83398151915255565b5050505050565b6001546001600160a01b03163314610d87576040516282b42960e81b815260040160405180910390fd5b600254600160a01b900460ff1615610db25760405163ab35696f60e01b815260040160405180910390fd5b600254600160a81b900460ff1615610ddd5760405163dc34885d60e01b815260040160405180910390fd5b610de56115f5565b6001600160a01b038116610e0c5760405163e6c4247b60e01b815260040160405180910390fd5b5f8281526003602052604090206001600482810154600160481b900460ff1690811115610e3b57610e3b611871565b14610e46575f61072b565b6004810154600160401b900460ff1615610e7357604051633c4eb00d60e21b815260040160405180910390fd5b6001810180546001600160a01b038481166001600160a01b03198316811790935560405191169190829086907f93bdfc52711a885425d2ee132214ccf51a79897e116aaa594b5a2d22afdad0b5905f90a45050610edc60015f8051602061196f83398151915255565b5050565b6001546001600160a01b03163314610f0a576040516282b42960e81b815260040160405180910390fd5b600254600160a01b900460ff1615610f355760405163ab35696f60e01b815260040160405180910390fd5b600254600160a81b900460ff1615610f605760405163dc34885d60e01b815260040160405180910390fd5b610f686115f5565b5f8281526003602052604090206001600482810154600160481b900460ff1690811115610f9757610f97611871565b14610fa2575f61072b565b8060020154821115610fc75760405163162908e360e11b815260040160405180910390fd5b5f828260020154610fd89190611934565b60048301805460ff60481b1916690400000000000000000017905590508015611034578154611034906001600160a01b037f00000000000000000000000000000000000000000000000000000000000000008116911683611610565b8215611076576001820154611076906001600160a01b037f00000000000000000000000000000000000000000000000000000000000000008116911685611610565b6001820154825460408051848152602081018790526001600160a01b03938416939092169187917f90ad7e7e8fb02c6b614196eed66796037a670d0486913132110e417214a4f92a910160405180910390a45050610edc60015f8051602061196f83398151915255565b5f546001600160a01b03163314611109576040516282b42960e81b815260040160405180910390fd5b6111116115f5565b5f8181526003602052604090206001600482810154600160481b900460ff169081111561114057611140611871565b1461114b575f61072b565b60048101546111679062ed4e00906001600160401b0316611947565b6001600160401b0316421015611190576040516321ec2ba160e21b815260040160405180910390fd5b60048101805460ff60481b1916600360481b179055805460028201546111e4916001600160a01b037f0000000000000000000000000000000000000000000000000000000000000000811692911690611610565b805460028201546040519081526001600160a01b039091169083907fc9c8b20cf48c0a9f890b899540e589b0e554196d596db6c7f2287dd713b740d090602001610823565b6001546001600160a01b03163314611253576040516282b42960e81b815260040160405180910390fd5b600254600160a01b900460ff161561127e5760405163ab35696f60e01b815260040160405180910390fd5b600254600160a81b900460ff16156112a95760405163dc34885d60e01b815260040160405180910390fd5b6112b16115f5565b5f8181526003602052604090206001600482810154600160481b900460ff16908111156112e0576112e0611871565b146112eb575f61072b565b6004810154600160401b900460ff161561131857604051633c4eb00d60e21b815260040160405180910390fd5b60048101805468ff00000000000000001916600160401b17905560405182907f63d19997a3d3810b2787bd20fc4eb29b9d3cf2279d6aa2f719f59899bffd9235905f90a25061084260015f8051602061196f83398151915255565b5f546001600160a01b0316331461139c576040516282b42960e81b815260040160405180910390fd5b600554600160a01b90046001600160401b03164210156113cf5760405163621e25c360e01b815260040160405180910390fd5b60058054600280546001600160a01b0319166001600160a01b0383169081179091556001600160e01b03199091169091556040517f4ed66a442c2385717a620035cf8e30a5c1ee907258d61f26cee88386cda93740905f90a2565b6114666040805160e0810182525f80825260208201819052918101829052606081018290526080810182905260a081018290529060c082015290565b5f82815260036020818152604092839020835160e08101855281546001600160a01b039081168252600183015416928101929092526002810154938201939093529082015460608201526004808301546001600160401b038116608084015260ff600160401b82048116151560a085015292939260c0850192600160481b90920416908111156114f8576114f8611871565b600481111561150957611509611871565b90525092915050565b5f546001600160a01b0316331461153b576040516282b42960e81b815260040160405180910390fd5b6001600160a01b0381166115625760405163e6c4247b60e01b815260040160405180910390fd5b600580546001600160a01b0319166001600160a01b03831617905561158a620151804261191b565b6005805467ffffffffffffffff60a01b1916600160a01b6001600160401b0393841681029190911791829055604051910490911681526001600160a01b038216907febd2e853a2c8403cb79a08395c9a034dc4fa339d84909c42b2e2bab8418472c2906020016104d4565b6115fd61168b565b60025f8051602061196f83398151915255565b61161d83838360016116bc565b61164a57604051635274afe760e01b81526001600160a01b03841660048201526024015b60405180910390fd5b505050565b61165d84848484600161171e565b61168557604051635274afe760e01b81526001600160a01b0385166004820152602401611641565b50505050565b5f8051602061196f833981519152546002036116ba57604051633ee5aeb560e01b815260040160405180910390fd5b565b60405163a9059cbb60e01b5f8181526001600160a01b038616600452602485905291602083604481808b5af1925060015f51148316611712578383151615611706573d5f823e3d81fd5b5f873b113d1516831692505b60405250949350505050565b6040516323b872dd60e01b5f8181526001600160a01b038781166004528616602452604485905291602083606481808c5af1925060015f5114831661177a57838315161561176e573d5f823e3d81fd5b5f883b113d1516831692505b604052505f60605295945050505050565b80356001600160a01b03811681146117a1575f80fd5b919050565b5f602082840312156117b6575f80fd5b6117bf8261178b565b9392505050565b5f602082840312156117d6575f80fd5b5035919050565b5f805f805f60a086880312156117f1575f80fd5b853594506118016020870161178b565b935061180f6040870161178b565b94979396509394606081013594506080013592915050565b5f8060408385031215611838575f80fd5b823591506118486020840161178b565b90509250929050565b5f8060408385031215611862575f80fd5b50508035926020909101359150565b634e487b7160e01b5f52602160045260245ffd5b5f60e08201905060018060a01b038084511683528060208501511660208401525060408301516040830152606083015160608301526001600160401b03608084015116608083015260a0830151151560a083015260c0830151600581106118fa57634e487b7160e01b5f52602160045260245ffd5b8060c08401525092915050565b634e487b7160e01b5f52601160045260245ffd5b8082018082111561192e5761192e611907565b92915050565b8181038181111561192e5761192e611907565b6001600160401b0381811683821601908082111561196757611967611907565b509291505056fe9b779b17422d0df92223018b32b4d1fa46e071723d6817e2486d003becc55f00a2646970667358221220d3279aa1a5d2954629004bb03994e8a41665da06f21e5f9b61fecaf174095d2764736f6c63430008180033","linkReferences":{}},"methodIdentifiers":{"EMERGENCY_REFUND_DELAY()":"0acbdee3","TIMELOCK_DURATION()":"4623c81e","admin()":"f851a440","confirmRelayer()":"65865881","confirmTreasury()":"edf1d2b3","deposit(bytes32,address,address,uint256,bytes32)":"9e9bb3cf","emergencyRefund(bytes32)":"d92e0af2","flagRelayerCompromised()":"5f295dd9","getEscrow(bytes32)":"f023b811","markSubmitted(bytes32)":"da4d18b6","pause()":"8456cb59","paused()":"5c975abb","proposeRelayer(address)":"2639e4e4","proposeTreasury(address)":"f110ed67","proposedRelayer()":"0698793d","proposedTreasury()":"6d1f016e","reassignAgent(bytes32,address)":"a78ff494","refund(bytes32)":"7249fbb6","relayer()":"8406c079","relayerCompromised()":"c1cc0b55","relayerEffectiveAt()":"f20ee2f8","release(bytes32)":"67d42a8b","split(bytes32,uint256)":"add78597","treasury()":"61d027b3","treasuryEffectiveAt()":"4a1fbd12","unflagRelayer()":"8f91d0e9","unpause()":"3f4ba83a","usdc()":"3e413bee"},"id":30}